{
  "contractName": "medical_record_management",
  "abi": [
    {
      "inputs": [],
      "payable": false,
      "stateMutability": "nonpayable",
      "type": "constructor"
    },
    {
      "anonymous": false,
      "inputs": [
        {
          "indexed": false,
          "internalType": "string",
          "name": "Doctor",
          "type": "string"
        },
        {
          "indexed": false,
          "internalType": "string",
          "name": "Patient",
          "type": "string"
        }
      ],
      "name": "DoctorAddedPatientsPrescriptionDetails",
      "type": "event"
    },
    {
      "anonymous": false,
      "inputs": [
        {
          "indexed": false,
          "internalType": "address",
          "name": "owner",
          "type": "address"
        },
        {
          "indexed": false,
          "internalType": "address",
          "name": "doctor",
          "type": "address"
        }
      ],
      "name": "DoctorAddedSuccesfully",
      "type": "event"
    },
    {
      "anonymous": false,
      "inputs": [
        {
          "indexed": false,
          "internalType": "address",
          "name": "owner",
          "type": "address"
        },
        {
          "indexed": false,
          "internalType": "address",
          "name": "patient",
          "type": "address"
        }
      ],
      "name": "PatientAddedSuccesfully",
      "type": "event"
    },
    {
      "anonymous": false,
      "inputs": [
        {
          "indexed": false,
          "internalType": "string",
          "name": "Patient",
          "type": "string"
        },
        {
          "indexed": false,
          "internalType": "string",
          "name": "Doctor",
          "type": "string"
        }
      ],
      "name": "patientGaveAccessToDoctor",
      "type": "event"
    },
    {
      "constant": true,
      "inputs": [],
      "name": "Doctor_count",
      "outputs": [
        {
          "internalType": "uint256",
          "name": "",
          "type": "uint256"
        }
      ],
      "payable": false,
      "stateMutability": "view",
      "type": "function"
    },
    {
      "constant": true,
      "inputs": [
        {
          "internalType": "uint256",
          "name": "",
          "type": "uint256"
        }
      ],
      "name": "Doctors",
      "outputs": [
        {
          "internalType": "string",
          "name": "name",
          "type": "string"
        },
        {
          "internalType": "address",
          "name": "id",
          "type": "address"
        }
      ],
      "payable": false,
      "stateMutability": "view",
      "type": "function"
    },
    {
      "constant": true,
      "inputs": [],
      "name": "Patient_count",
      "outputs": [
        {
          "internalType": "uint256",
          "name": "",
          "type": "uint256"
        }
      ],
      "payable": false,
      "stateMutability": "view",
      "type": "function"
    },
    {
      "constant": true,
      "inputs": [
        {
          "internalType": "uint256",
          "name": "",
          "type": "uint256"
        }
      ],
      "name": "Patients",
      "outputs": [
        {
          "internalType": "string",
          "name": "name",
          "type": "string"
        },
        {
          "internalType": "address",
          "name": "id",
          "type": "address"
        }
      ],
      "payable": false,
      "stateMutability": "view",
      "type": "function"
    },
    {
      "constant": false,
      "inputs": [
        {
          "internalType": "address",
          "name": "id",
          "type": "address"
        },
        {
          "internalType": "string",
          "name": "name",
          "type": "string"
        }
      ],
      "name": "addDoctor",
      "outputs": [],
      "payable": false,
      "stateMutability": "nonpayable",
      "type": "function"
    },
    {
      "constant": false,
      "inputs": [
        {
          "internalType": "address",
          "name": "id",
          "type": "address"
        },
        {
          "internalType": "string",
          "name": "name",
          "type": "string"
        },
        {
          "internalType": "string[]",
          "name": "record",
          "type": "string[]"
        }
      ],
      "name": "addPatient",
      "outputs": [],
      "payable": false,
      "stateMutability": "nonpayable",
      "type": "function"
    },
    {
      "constant": false,
      "inputs": [
        {
          "internalType": "address",
          "name": "doc",
          "type": "address"
        }
      ],
      "name": "accessToDoctor",
      "outputs": [],
      "payable": false,
      "stateMutability": "nonpayable",
      "type": "function"
    },
    {
      "constant": true,
      "inputs": [
        {
          "internalType": "address",
          "name": "pa",
          "type": "address"
        }
      ],
      "name": "getDetailsOfPatient",
      "outputs": [
        {
          "internalType": "address",
          "name": "Id",
          "type": "address"
        },
        {
          "internalType": "string",
          "name": "Name",
          "type": "string"
        },
        {
          "internalType": "string[]",
          "name": "Record",
          "type": "string[]"
        }
      ],
      "payable": false,
      "stateMutability": "view",
      "type": "function"
    },
    {
      "constant": false,
      "inputs": [
        {
          "internalType": "address",
          "name": "pat",
          "type": "address"
        },
        {
          "internalType": "string",
          "name": "prescription",
          "type": "string"
        }
      ],
      "name": "addPrescriptionOfPatient",
      "outputs": [],
      "payable": false,
      "stateMutability": "nonpayable",
      "type": "function"
    }
  ],
  "bytecode": "0x608060405234801561001057600080fd5b506000600581905550600060068190555033600760006101000a81548173ffffffffffffffffffffffffffffffffffffffff021916908373ffffffffffffffffffffffffffffffffffffffff16021790555061188e806100716000396000f3fe608060405234801561001057600080fd5b50600436106100935760003560e01c80639d0a0d71116100665780639d0a0d7114610135578063a198283514610151578063b8f34b2114610182578063b8fe77ea1461019e578063d919b11d146101ba57610093565b8063271516721461009857806348ab3ec1146100c957806363d061dc146100fb5780637cf1e44514610119575b600080fd5b6100b260048036036100ad919081019061131c565b6101d8565b6040516100c09291906115a3565b60405180910390f35b6100e360048036036100de9190810190611220565b6102b4565b6040516100f29392919061155e565b60405180910390f35b61010361055e565b604051610110919061160a565b60405180910390f35b610133600480360361012e9190810190611249565b610564565b005b61014f600480360361014a9190810190611249565b6107a9565b005b61016b6004803603610166919081019061131c565b610947565b6040516101799291906115a3565b60405180910390f35b61019c60048036036101979190810190611220565b610a23565b005b6101b860048036036101b3919081019061129d565b610bd6565b005b6101c2610edb565b6040516101cf919061160a565b60405180910390f35b6000602052806000526040600020600091509050806000018054600181600116156101000203166002900480601f0160208091040260200160405190810160405280929190818152602001828054600181600116156101000203166002900480156102845780601f1061025957610100808354040283529160200191610284565b820191906000526020600020905b81548152906001019060200180831161026757829003601f168201915b5050505050908060010160009054906101000a900473ffffffffffffffffffffffffffffffffffffffff16905082565b600060608060011515600460008673ffffffffffffffffffffffffffffffffffffffff1673ffffffffffffffffffffffffffffffffffffffff16815260200190815260200160002060003373ffffffffffffffffffffffffffffffffffffffff1673ffffffffffffffffffffffffffffffffffffffff16815260200190815260200160002060009054906101000a900460ff1615151461035357600080fd5b839250600360008573ffffffffffffffffffffffffffffffffffffffff1673ffffffffffffffffffffffffffffffffffffffff1681526020019081526020016000206000018054600181600116156101000203166002900480601f01602080910402602001604051908101604052809291908181526020018280546001816001161561010002031660029004801561042c5780601f106104015761010080835404028352916020019161042c565b820191906000526020600020905b81548152906001019060200180831161040f57829003601f168201915b50505050509150600360008573ffffffffffffffffffffffffffffffffffffffff1673ffffffffffffffffffffffffffffffffffffffff168152602001908152602001600020600201805480602002602001604051908101604052809291908181526020016000905b82821015610551578382906000526020600020018054600181600116156101000203166002900480601f01602080910402602001604051908101604052809291908181526020018280546001816001161561010002031660029004801561053d5780601f106105125761010080835404028352916020019161053d565b820191906000526020600020905b81548152906001019060200180831161052057829003601f168201915b505050505081526020019060010190610495565b5050505090509193909250565b60055481565b3373ffffffffffffffffffffffffffffffffffffffff16600760009054906101000a900473ffffffffffffffffffffffffffffffffffffffff1673ffffffffffffffffffffffffffffffffffffffff16146105be57600080fd5b60405180604001604052808281526020018373ffffffffffffffffffffffffffffffffffffffff16815250600080600560008154809291906001019190505581526020019081526020016000206000820151816000019080519060200190610627929190610ee1565b5060208201518160010160006101000a81548173ffffffffffffffffffffffffffffffffffffffff021916908373ffffffffffffffffffffffffffffffffffffffff16021790555090505060405180606001604052808281526020018373ffffffffffffffffffffffffffffffffffffffff16815260200160011515815250600260008473ffffffffffffffffffffffffffffffffffffffff1673ffffffffffffffffffffffffffffffffffffffff1681526020019081526020016000206000820151816000019080519060200190610701929190610ee1565b5060208201518160010160006101000a81548173ffffffffffffffffffffffffffffffffffffffff021916908373ffffffffffffffffffffffffffffffffffffffff16021790555060408201518160010160146101000a81548160ff0219169083151502179055509050507f9e12f0e9f46a58e631a240f23c035c66ff4df38c376526fa8f770265671db91e338360405161079d929190611535565b60405180910390a15050565b60011515600260003373ffffffffffffffffffffffffffffffffffffffff1673ffffffffffffffffffffffffffffffffffffffff16815260200190815260200160002060010160149054906101000a900460ff1615151461080957600080fd5b600360008373ffffffffffffffffffffffffffffffffffffffff1673ffffffffffffffffffffffffffffffffffffffff168152602001908152602001600020600201819080600181540180825580915050906001820390600052602060002001600090919290919091509080519060200190610886929190610f61565b50507fb8a9e04d229cb96e8e2e53458b8eadaeefcd741405abb398dca21387c1b5407c600260003373ffffffffffffffffffffffffffffffffffffffff1673ffffffffffffffffffffffffffffffffffffffff168152602001908152602001600020600001600360008573ffffffffffffffffffffffffffffffffffffffff1673ffffffffffffffffffffffffffffffffffffffff16815260200190815260200160002060000160405161093b9291906115d3565b60405180910390a15050565b6001602052806000526040600020600091509050806000018054600181600116156101000203166002900480601f0160208091040260200160405190810160405280929190818152602001828054600181600116156101000203166002900480156109f35780601f106109c8576101008083540402835291602001916109f3565b820191906000526020600020905b8154815290600101906020018083116109d657829003601f168201915b5050505050908060010160009054906101000a900473ffffffffffffffffffffffffffffffffffffffff16905082565b60011515600360003373ffffffffffffffffffffffffffffffffffffffff1673ffffffffffffffffffffffffffffffffffffffff16815260200190815260200160002060010160149054906101000a900460ff16151514610a8357600080fd5b6001600460003373ffffffffffffffffffffffffffffffffffffffff1673ffffffffffffffffffffffffffffffffffffffff16815260200190815260200160002060008373ffffffffffffffffffffffffffffffffffffffff1673ffffffffffffffffffffffffffffffffffffffff16815260200190815260200160002060006101000a81548160ff0219169083151502179055507f366280057d984986d780bb0153cd05cb98e5aefbc686873d2d7cfb375c7ccd27600360003373ffffffffffffffffffffffffffffffffffffffff1673ffffffffffffffffffffffffffffffffffffffff168152602001908152602001600020600001600260008473ffffffffffffffffffffffffffffffffffffffff1673ffffffffffffffffffffffffffffffffffffffff168152602001908152602001600020600001604051610bcb9291906115d3565b60405180910390a150565b60011515600260003373ffffffffffffffffffffffffffffffffffffffff1673ffffffffffffffffffffffffffffffffffffffff16815260200190815260200160002060010160149054906101000a900460ff16151514610c3657600080fd5b6001600460008573ffffffffffffffffffffffffffffffffffffffff1673ffffffffffffffffffffffffffffffffffffffff16815260200190815260200160002060008573ffffffffffffffffffffffffffffffffffffffff1673ffffffffffffffffffffffffffffffffffffffff16815260200190815260200160002060006101000a81548160ff02191690831515021790555060405180604001604052808381526020018473ffffffffffffffffffffffffffffffffffffffff1681525060016000600660008154809291906001019190505581526020019081526020016000206000820151816000019080519060200190610d35929190610ee1565b5060208201518160010160006101000a81548173ffffffffffffffffffffffffffffffffffffffff021916908373ffffffffffffffffffffffffffffffffffffffff16021790555090505060405180608001604052808381526020018473ffffffffffffffffffffffffffffffffffffffff16815260200160011515815260200182815250600360008573ffffffffffffffffffffffffffffffffffffffff1673ffffffffffffffffffffffffffffffffffffffff1681526020019081526020016000206000820151816000019080519060200190610e15929190610ee1565b5060208201518160010160006101000a81548173ffffffffffffffffffffffffffffffffffffffff021916908373ffffffffffffffffffffffffffffffffffffffff16021790555060408201518160010160146101000a81548160ff0219169083151502179055506060820151816002019080519060200190610e99929190610fe1565b509050507f353c21ecb50b07d233a797b7c9073a9d3de1cd74610f47f8449f5ca6b6dbc2b03384604051610ece929190611535565b60405180910390a1505050565b60065481565b828054600181600116156101000203166002900490600052602060002090601f016020900481019282601f10610f2257805160ff1916838001178555610f50565b82800160010185558215610f50579182015b82811115610f4f578251825591602001919060010190610f34565b5b509050610f5d9190611041565b5090565b828054600181600116156101000203166002900490600052602060002090601f016020900481019282601f10610fa257805160ff1916838001178555610fd0565b82800160010185558215610fd0579182015b82811115610fcf578251825591602001919060010190610fb4565b5b509050610fdd9190611041565b5090565b828054828255906000526020600020908101928215611030579160200282015b8281111561102f57825182908051906020019061101f929190610ee1565b5091602001919060010190611001565b5b50905061103d9190611066565b5090565b61106391905b8082111561105f576000816000905550600101611047565b5090565b90565b61108f91905b8082111561108b57600081816110829190611092565b5060010161106c565b5090565b90565b50805460018160011615610100020316600290046000825580601f106110b857506110d7565b601f0160209004906000526020600020908101906110d69190611041565b5b50565b6000813590506110e98161181d565b92915050565b600082601f83011261110057600080fd5b813561111361110e82611652565b611625565b9150818183526020840193506020810190508360005b83811015611159578135860161113f8882611163565b845260208401935060208301925050600181019050611129565b5050505092915050565b600082601f83011261117457600080fd5b81356111876111828261167a565b611625565b915080825260208301602083018583830111156111a357600080fd5b6111ae8382846117ca565b50505092915050565b600082601f8301126111c857600080fd5b81356111db6111d6826116a6565b611625565b915080825260208301602083018583830111156111f757600080fd5b6112028382846117ca565b50505092915050565b60008135905061121a81611834565b92915050565b60006020828403121561123257600080fd5b6000611240848285016110da565b91505092915050565b6000806040838503121561125c57600080fd5b600061126a858286016110da565b925050602083013567ffffffffffffffff81111561128757600080fd5b611293858286016111b7565b9150509250929050565b6000806000606084860312156112b257600080fd5b60006112c0868287016110da565b935050602084013567ffffffffffffffff8111156112dd57600080fd5b6112e9868287016111b7565b925050604084013567ffffffffffffffff81111561130657600080fd5b611312868287016110ef565b9150509250925092565b60006020828403121561132e57600080fd5b600061133c8482850161120b565b91505092915050565b60006113518383611425565b905092915050565b61136281611794565b82525050565b61137181611758565b82525050565b6000611382826116f7565b61138c8185611725565b93508360208202850161139e856116d2565b8060005b858110156113da57848403895281516113bb8582611345565b94506113c683611718565b925060208a019950506001810190506113a2565b50829750879550505050505092915050565b60006113f78261170d565b6114018185611747565b93506114118185602086016117d9565b61141a8161180c565b840191505092915050565b600061143082611702565b61143a8185611736565b935061144a8185602086016117d9565b6114538161180c565b840191505092915050565b600061146982611702565b6114738185611747565b93506114838185602086016117d9565b61148c8161180c565b840191505092915050565b6000815460018116600081146114b457600181146114da5761151e565b607f60028304166114c58187611747565b955060ff19831686526020860193505061151e565b600282046114e88187611747565b95506114f3856116e2565b60005b82811015611515578154818901526001820191506020810190506114f6565b80880195505050505b505092915050565b61152f8161178a565b82525050565b600060408201905061154a6000830185611359565b6115576020830184611368565b9392505050565b60006060820190506115736000830186611368565b818103602083015261158581856113ec565b905081810360408301526115998184611377565b9050949350505050565b600060408201905081810360008301526115bd818561145e565b90506115cc6020830184611368565b9392505050565b600060408201905081810360008301526115ed8185611497565b905081810360208301526116018184611497565b90509392505050565b600060208201905061161f6000830184611526565b92915050565b6000604051905081810181811067ffffffffffffffff8211171561164857600080fd5b8060405250919050565b600067ffffffffffffffff82111561166957600080fd5b602082029050602081019050919050565b600067ffffffffffffffff82111561169157600080fd5b601f19601f8301169050602081019050919050565b600067ffffffffffffffff8211156116bd57600080fd5b601f19601f8301169050602081019050919050565b6000819050602082019050919050565b60008190508160005260206000209050919050565b600081519050919050565b600081519050919050565b600081519050919050565b6000602082019050919050565b600082825260208201905092915050565b600082825260208201905092915050565b600082825260208201905092915050565b60006117638261176a565b9050919050565b600073ffffffffffffffffffffffffffffffffffffffff82169050919050565b6000819050919050565b600061179f826117a6565b9050919050565b60006117b1826117b8565b9050919050565b60006117c38261176a565b9050919050565b82818337600083830152505050565b60005b838110156117f75780820151818401526020810190506117dc565b83811115611806576000848401525b50505050565b6000601f19601f8301169050919050565b61182681611758565b811461183157600080fd5b50565b61183d8161178a565b811461184857600080fd5b5056fea365627a7a7231582051dbafe625658118a5be48f9ae25947aad54c478af3444c6f0f083c82072adeb6c6578706572696d656e74616cf564736f6c63430005100040",
  "source": "// SPDX-License-Identifier: GPL-3.0\npragma solidity >=0.4.21  ;\n pragma experimental ABIEncoderV2;\ncontract medical_record_management{\n\n  event DoctorAddedSuccesfully(address owner, address doctor);\n  event PatientAddedSuccesfully(address owner, address patient);\n  event DoctorAddedPatientsPrescriptionDetails(string Doctor, string Patient);\n  event patientGaveAccessToDoctor(string Patient , string Doctor);\n\n  // To map address and strut\n  mapping(uint256 => DocAddressName) public   Doctors;\n  mapping(uint256 => PatAddressName)public   Patients;\n  mapping(address=>doctor)   DoctorInfo;\n  mapping(address=>patient)   PatientInfo;\n  mapping(address=>mapping(address=>bool))   PatientToDoctor;\n\n  uint public Doctor_count;\n  uint public Patient_count;\n  // structure for doctor\n  struct   doctor  {\n    string name;\n    address id;\n    bool flag; //to check if doctor is authorized\n  }\n  struct   PatAddressName  {\n    string name;\n    address id;   //to check if doctor is authorized\n  }\n  struct   DocAddressName  {\n    string name;\n    address id;   //to check if doctor is authorized\n  }\n  struct PrescriptionDetails {\n    string doctor_name;\n    string prescription;\n  }\n\n  struct patient{\n    string name;\n    address id;\n    bool flag; //to check if patient is authorized\n    string[] records;\n  }\n\n\n  address owner;\n\n  constructor()  public {\n    Doctor_count=0;Patient_count=0;\n    owner=msg.sender;\n  }\n\n  modifier onlyOwner{\n    require(owner==msg.sender);\n    _;\n  }\n  modifier onlyDoctor{\n    require(DoctorInfo[msg.sender].flag==true);\n    _;\n  }\n  modifier onlypatient{\n    require(PatientInfo[msg.sender].flag==true);\n    _;\n  }\n  function addDoctor(address id, string memory name) public onlyOwner{\n    Doctors[Doctor_count++]=DocAddressName(name, id);\n    DoctorInfo[id]=doctor(name , id,true);\n    emit DoctorAddedSuccesfully(msg.sender , id);\n  }\n  function addPatient(address id, string memory name,string[] memory record) public onlyDoctor{\n    PatientToDoctor[id][id]=true;\n    Patients[Patient_count++]=PatAddressName(name, id);\n    PatientInfo[id]=patient(name , id,true, record);\n    emit PatientAddedSuccesfully(msg.sender , id);\n  }\n  function accessToDoctor(address doc) public onlypatient{\n    PatientToDoctor[msg.sender][doc]=true;\n    emit   patientGaveAccessToDoctor(PatientInfo[msg.sender].name,DoctorInfo[doc].name);\n  }\n\n  function getDetailsOfPatient(address pa) public view returns(address Id,string memory Name,string[] memory Record){\n  require(PatientToDoctor[pa][msg.sender]==true);\n  Id=pa;\n  Name=PatientInfo[pa].name;\n  Record=PatientInfo[pa].records;\n\n}\n  function addPrescriptionOfPatient(address pat , string memory   prescription) public onlyDoctor{\n\n    PatientInfo[pat].records.push( prescription);\n    emit DoctorAddedPatientsPrescriptionDetails(DoctorInfo[msg.sender].name,PatientInfo[pat].name);\n  }\n}",
  "sourcePath": "C:\\Users\\khapa\\OneDrive\\Documents\\blockchain\\MyApplication\\medical_record_management\\contracts\\medical_record_management.sol",
  "compiler": {
    "name": "solc",
    "version": "0.5.16+commit.9c3226ce.Emscripten.clang"
  },
  "schemaVersion": "3.4.9",
  "updatedAt": "2022-09-14T06:38:32.414Z",
  "networkType": "ethereum",
  "devdoc": {
    "methods": {}
  },
  "userdoc": {
    "methods": {}
  }
}